{
  "transactions": [
    {
      "hash": null,
      "transactionType": "CALL",
      "contractName": null,
      "contractAddress": "0x5f1a00bb3f2002ac4d48c7a14b3dcbc01e2ac958",
      "function": "updateFeeSigner(address)",
      "arguments": [
        "0xf1a5F2BB3853bA041C133Fe43ed2855dB4a8559E"
      ],
      "transaction": {
        "from": "0x97a027c65e52d8617e69770a782d638585f521eb",
        "to": "0x5f1a00bb3f2002ac4d48c7a14b3dcbc01e2ac958",
        "gas": "0x12c48",
        "value": "0x0",
        "input": "0xb0834893000000000000000000000000f1a5f2bb3853ba041c133fe43ed2855db4a8559e",
        "nonce": "0x2",
        "chainId": "0x2105"
      },
      "additionalContracts": [],
      "isFixedGasLimit": false
    }
  ],
  "receipts": [],
  "libraries": [],
  "pending": [],
  "returns": {},
  "timestamp": 1736430258,
  "chain": 8453,
  "commit": "d38dac24"
}