{
  "transactions": [
    {
      "hash": "0x65cc2ec22b2f13bb531300e42876fb9d9e4a08e49a98f87a7edbb02f4de78244",
      "transactionType": "CALL",
      "contractName": null,
      "contractAddress": "0x67f3a8170579798d2363252c10c68f7654ba151b",
      "function": "buy(address,address,address,string,uint8,uint256,uint160)",
      "arguments": [
        "0x96d9894371d8cf0C566F557bc8830F881E4D6c7a",
        "0x96d9894371d8cf0C566F557bc8830F881E4D6c7a",
        "0x0000000000000000000000000000000000000000",
        "Graduation Buy",
        "0",
        "792000000000000000000000000",
        "0"
      ],
      "transaction": {
        "from": "0x96d9894371d8cf0c566f557bc8830f881e4d6c7a",
        "to": "0x67f3a8170579798d2363252c10c68f7654ba151b",
        "gas": "0x11e1a7",
        "value": "0x72ee679f8969aace",
        "input": "0x472e649000000000000000000000000096d9894371d8cf0c566f557bc8830f881e4d6c7a00000000000000000000000096d9894371d8cf0c566f557bc8830f881e4d6c7a000000000000000000000000000000000000000000000000000000000000000000000000000000000000000000000000000000000000000000000000000000e000000000000000000000000000000000000000000000000000000000000000000000000000000000000000000000000000000000028f208607c9ff2a180000000000000000000000000000000000000000000000000000000000000000000000000000000000000000000000000000000000000000000000000000000000000e47726164756174696f6e20427579000000000000000000000000000000000000",
        "nonce": "0x421",
        "chainId": "0x14a34"
      },
      "additionalContracts": [],
      "isFixedGasLimit": false
    },
    {
      "hash": "0x22f039931421bece75062ceb1986f04634fba4cfccdc73cb44ea081a63b5ca8f",
      "transactionType": "CALL",
      "contractName": null,
      "contractAddress": "0x67f3a8170579798d2363252c10c68f7654ba151b",
      "function": "buy(address,address,address,string,uint8,uint256,uint160)",
      "arguments": [
        "0x96d9894371d8cf0C566F557bc8830F881E4D6c7a",
        "0x96d9894371d8cf0C566F557bc8830F881E4D6c7a",
        "0x0000000000000000000000000000000000000000",
        "Post Graduation Buy",
        "1",
        "10832666447797248449966211",
        "0"
      ],
      "transaction": {
        "from": "0x96d9894371d8cf0c566f557bc8830f881e4d6c7a",
        "to": "0x67f3a8170579798d2363252c10c68f7654ba151b",
        "gas": "0x4f2e5",
        "value": "0xde0b6b3a7640000",
        "input": "0x472e649000000000000000000000000096d9894371d8cf0c566f557bc8830f881e4d6c7a00000000000000000000000096d9894371d8cf0c566f557bc8830f881e4d6c7a000000000000000000000000000000000000000000000000000000000000000000000000000000000000000000000000000000000000000000000000000000e0000000000000000000000000000000000000000000000000000000000000000100000000000000000000000000000000000000000008f5e8065af8f6e169f08300000000000000000000000000000000000000000000000000000000000000000000000000000000000000000000000000000000000000000000000000000013506f73742047726164756174696f6e2042757900000000000000000000000000",
        "nonce": "0x422",
        "chainId": "0x14a34"
      },
      "additionalContracts": [],
      "isFixedGasLimit": false
    },
    {
      "hash": "0x69612194346d4967694952c039d5f8dcfb783c80c9e6a52b69d25908b0cd7b3f",
      "transactionType": "CALL",
      "contractName": null,
      "contractAddress": "0x67f3a8170579798d2363252c10c68f7654ba151b",
      "function": "approve(address,uint256)",
      "arguments": [
        "0x67f3A8170579798D2363252C10C68f7654ba151B",
        "11010476478313287764904180"
      ],
      "transaction": {
        "from": "0x96d9894371d8cf0c566f557bc8830f881e4d6c7a",
        "to": "0x67f3a8170579798d2363252c10c68f7654ba151b",
        "gas": "0x11686",
        "value": "0x0",
        "input": "0x095ea7b300000000000000000000000067f3a8170579798d2363252c10c68f7654ba151b000000000000000000000000000000000000000000091b8f203a9d6283c388f4",
        "nonce": "0x423",
        "chainId": "0x14a34"
      },
      "additionalContracts": [],
      "isFixedGasLimit": false
    },
    {
      "hash": "0x1d33d4868c3fac945bdb28b8419e50542dbbbcc2c55a1a020ea9be3f8a61b89f",
      "transactionType": "CALL",
      "contractName": null,
      "contractAddress": "0x67f3a8170579798d2363252c10c68f7654ba151b",
      "function": "sell(uint256,address,address,string,uint8,uint256,uint160)",
      "arguments": [
        "11010476478313287764904180",
        "0x96d9894371d8cf0C566F557bc8830F881E4D6c7a",
        "0x0000000000000000000000000000000000000000",
        "Post Graduation Sell",
        "1",
        "455072468902090092",
        "0"
      ],
      "transaction": {
        "from": "0x96d9894371d8cf0c566f557bc8830f881e4d6c7a",
        "to": "0x67f3a8170579798d2363252c10c68f7654ba151b",
        "gas": "0x502f3",
        "value": "0x0",
        "input": "0x9352c825000000000000000000000000000000000000000000091b8f203a9d6283c388f400000000000000000000000096d9894371d8cf0c566f557bc8830f881e4d6c7a000000000000000000000000000000000000000000000000000000000000000000000000000000000000000000000000000000000000000000000000000000e000000000000000000000000000000000000000000000000000000000000000010000000000000000000000000000000000000000000000000650bdffd7f8156c00000000000000000000000000000000000000000000000000000000000000000000000000000000000000000000000000000000000000000000000000000014506f73742047726164756174696f6e2053656c6c000000000000000000000000",
        "nonce": "0x424",
        "chainId": "0x14a34"
      },
      "additionalContracts": [],
      "isFixedGasLimit": false
    }
  ],
  "receipts": [
    {
      "status": "0x1",
      "cumulativeGasUsed": "0xcf224",
      "logs": [
        {
          "address": "0x67f3a8170579798d2363252c10c68f7654ba151b",
          "topics": [
            "0xddf252ad1be2c89b69c2b068fc378daa952ba7f163c4a11628f55a4df523b3ef",
            "0x0000000000000000000000000000000000000000000000000000000000000000",
            "0x00000000000000000000000096d9894371d8cf0c566f557bc8830f881e4d6c7a"
          ],
          "data": "0x00000000000000000000000000000000000000000295be96e640669720000000",
          "blockHash": "0x5047e90d90d5f7dc26cbb4733b21f4e8489665c5d6372597228647de8d485c82",
          "blockNumber": "0x1165268",
          "blockTimestamp": "0x674005b9",
          "transactionHash": "0x65cc2ec22b2f13bb531300e42876fb9d9e4a08e49a98f87a7edbb02f4de78244",
          "transactionIndex": "0x0",
          "logIndex": "0x0",
          "removed": false
        },
        {
          "address": "0x67f3a8170579798d2363252c10c68f7654ba151b",
          "topics": [
            "0x03748fdf3f2653a71724526b9a09758f077bfebef82c6be9345acf194a229541",
            "0x0000000000000000000000000000000000000000000000000000000000000000",
            "0x00000000000000000000000096d9894371d8cf0c566f557bc8830f881e4d6c7a"
          ],
          "data": "0x00000000000000000000000000000000000000000295be96e640669720000000000000000000000000000000000000000000000000000000000000000000000000000000000000000000000000000000000000000295be96e64066972000000000000000000000000000000000000000000000000295be96e640669720000000",
          "blockHash": "0x5047e90d90d5f7dc26cbb4733b21f4e8489665c5d6372597228647de8d485c82",
          "blockNumber": "0x1165268",
          "blockTimestamp": "0x674005b9",
          "transactionHash": "0x65cc2ec22b2f13bb531300e42876fb9d9e4a08e49a98f87a7edbb02f4de78244",
          "transactionIndex": "0x0",
          "logIndex": "0x1",
          "removed": false
        },
        {
          "address": "0x7777777f279eba3d3ad8f4e708545291a6fdba8b",
          "topics": [
            "0x5b769452a2090142e059af5137c5b92a3e966cfb03b794cd01ac195d196c0001",
            "0x00000000000000000000000067f3a8170579798d2363252c10c68f7654ba151b",
            "0x00000000000000000000000096d9894371d8cf0c566f557bc8830f881e4d6c7a",
            "0x2195aeb300000000000000000000000000000000000000000000000000000000"
          ],
          "data": "0x00000000000000000000000000000000000000000000000001cdef983af847e000000000000000000000000000000000000000000000000000000000000000400000000000000000000000000000000000000000000000000000000000000000",
          "blockHash": "0x5047e90d90d5f7dc26cbb4733b21f4e8489665c5d6372597228647de8d485c82",
          "blockNumber": "0x1165268",
          "blockTimestamp": "0x674005b9",
          "transactionHash": "0x65cc2ec22b2f13bb531300e42876fb9d9e4a08e49a98f87a7edbb02f4de78244",
          "transactionIndex": "0x0",
          "logIndex": "0x2",
          "removed": false
        },
        {
          "address": "0x7777777f279eba3d3ad8f4e708545291a6fdba8b",
          "topics": [
            "0x5b769452a2090142e059af5137c5b92a3e966cfb03b794cd01ac195d196c0001",
            "0x00000000000000000000000067f3a8170579798d2363252c10c68f7654ba151b",
            "0x00000000000000000000000097a027c65e52d8617e69770a782d638585f521eb",
            "0x4f45123800000000000000000000000000000000000000000000000000000000"
          ],
          "data": "0x000000000000000000000000000000000000000000000000005c631e7231a7f900000000000000000000000000000000000000000000000000000000000000400000000000000000000000000000000000000000000000000000000000000000",
          "blockHash": "0x5047e90d90d5f7dc26cbb4733b21f4e8489665c5d6372597228647de8d485c82",
          "blockNumber": "0x1165268",
          "blockTimestamp": "0x674005b9",
          "transactionHash": "0x65cc2ec22b2f13bb531300e42876fb9d9e4a08e49a98f87a7edbb02f4de78244",
          "transactionIndex": "0x0",
          "logIndex": "0x3",
          "removed": false
        },
        {
          "address": "0x7777777f279eba3d3ad8f4e708545291a6fdba8b",
          "topics": [
            "0x5b769452a2090142e059af5137c5b92a3e966cfb03b794cd01ac195d196c0001",
            "0x00000000000000000000000067f3a8170579798d2363252c10c68f7654ba151b",
            "0x00000000000000000000000097a027c65e52d8617e69770a782d638585f521eb",
            "0x2c831a5500000000000000000000000000000000000000000000000000000000"
          ],
          "data": "0x000000000000000000000000000000000000000000000000005c631e7231a7f900000000000000000000000000000000000000000000000000000000000000400000000000000000000000000000000000000000000000000000000000000000",
          "blockHash": "0x5047e90d90d5f7dc26cbb4733b21f4e8489665c5d6372597228647de8d485c82",
          "blockNumber": "0x1165268",
          "blockTimestamp": "0x674005b9",
          "transactionHash": "0x65cc2ec22b2f13bb531300e42876fb9d9e4a08e49a98f87a7edbb02f4de78244",
          "transactionIndex": "0x0",
          "logIndex": "0x4",
          "removed": false
        },
        {
          "address": "0x7777777f279eba3d3ad8f4e708545291a6fdba8b",
          "topics": [
            "0x5b769452a2090142e059af5137c5b92a3e966cfb03b794cd01ac195d196c0001",
            "0x00000000000000000000000067f3a8170579798d2363252c10c68f7654ba151b",
            "0x0000000000000000000000009988c79fa6daa5c06b31236628ee80361e7ebecd",
            "0x466e3cd400000000000000000000000000000000000000000000000000000000"
          ],
          "data": "0x000000000000000000000000000000000000000000000000005c631e7231a7f900000000000000000000000000000000000000000000000000000000000000400000000000000000000000000000000000000000000000000000000000000000",
          "blockHash": "0x5047e90d90d5f7dc26cbb4733b21f4e8489665c5d6372597228647de8d485c82",
          "blockNumber": "0x1165268",
          "blockTimestamp": "0x674005b9",
          "transactionHash": "0x65cc2ec22b2f13bb531300e42876fb9d9e4a08e49a98f87a7edbb02f4de78244",
          "transactionIndex": "0x0",
          "logIndex": "0x5",
          "removed": false
        },
        {
          "address": "0x7777777f279eba3d3ad8f4e708545291a6fdba8b",
          "topics": [
            "0x5b769452a2090142e059af5137c5b92a3e966cfb03b794cd01ac195d196c0001",
            "0x00000000000000000000000067f3a8170579798d2363252c10c68f7654ba151b",
            "0x00000000000000000000000097a027c65e52d8617e69770a782d638585f521eb",
            "0x404ca69f00000000000000000000000000000000000000000000000000000000"
          ],
          "data": "0x00000000000000000000000000000000000000000000000000b8c63ce4634ff300000000000000000000000000000000000000000000000000000000000000400000000000000000000000000000000000000000000000000000000000000000",
          "blockHash": "0x5047e90d90d5f7dc26cbb4733b21f4e8489665c5d6372597228647de8d485c82",
          "blockNumber": "0x1165268",
          "blockTimestamp": "0x674005b9",
          "transactionHash": "0x65cc2ec22b2f13bb531300e42876fb9d9e4a08e49a98f87a7edbb02f4de78244",
          "transactionIndex": "0x0",
          "logIndex": "0x6",
          "removed": false
        },
        {
          "address": "0x67f3a8170579798d2363252c10c68f7654ba151b",
          "topics": [
            "0x101f282711d5d43488168e09b492f51ffff91932431fa1785050ed90fc1b5bc0",
            "0x00000000000000000000000096d9894371d8cf0c566f557bc8830f881e4d6c7a",
            "0x00000000000000000000000097a027c65e52d8617e69770a782d638585f521eb",
            "0x00000000000000000000000097a027c65e52d8617e69770a782d638585f521eb"
          ],
          "data": "0x0000000000000000000000009988c79fa6daa5c06b31236628ee80361e7ebecd00000000000000000000000097a027c65e52d8617e69770a782d638585f521eb00000000000000000000000000000000000000000000000001cdef983af847e0000000000000000000000000000000000000000000000000005c631e7231a7f9000000000000000000000000000000000000000000000000005c631e7231a7f9000000000000000000000000000000000000000000000000005c631e7231a7f900000000000000000000000000000000000000000000000000b8c63ce4634ff3",
          "blockHash": "0x5047e90d90d5f7dc26cbb4733b21f4e8489665c5d6372597228647de8d485c82",
          "blockNumber": "0x1165268",
          "blockTimestamp": "0x674005b9",
          "transactionHash": "0x65cc2ec22b2f13bb531300e42876fb9d9e4a08e49a98f87a7edbb02f4de78244",
          "transactionIndex": "0x0",
          "logIndex": "0x7",
          "removed": false
        },
        {
          "address": "0x999b45bb215209e567faf486515af43b8353e393",
          "topics": [
            "0xddf252ad1be2c89b69c2b068fc378daa952ba7f163c4a11628f55a4df523b3ef",
            "0x0000000000000000000000000000000000000000000000000000000000000000",
            "0x00000000000000000000000067f3a8170579798d2363252c10c68f7654ba151b"
          ],
          "data": "0x0000000000000000000000000000000000000000000000006c5fe61dfaa2291a",
          "blockHash": "0x5047e90d90d5f7dc26cbb4733b21f4e8489665c5d6372597228647de8d485c82",
          "blockNumber": "0x1165268",
          "blockTimestamp": "0x674005b9",
          "transactionHash": "0x65cc2ec22b2f13bb531300e42876fb9d9e4a08e49a98f87a7edbb02f4de78244",
          "transactionIndex": "0x0",
          "logIndex": "0x8",
          "removed": false
        },
        {
          "address": "0x999b45bb215209e567faf486515af43b8353e393",
          "topics": [
            "0xe1fffcc4923d04b559f4d29a8bfc6cda04eb5b0d3c460751c2402c5c5cc9109c",
            "0x00000000000000000000000067f3a8170579798d2363252c10c68f7654ba151b"
          ],
          "data": "0x0000000000000000000000000000000000000000000000006c5fe61dfaa2291a",
          "blockHash": "0x5047e90d90d5f7dc26cbb4733b21f4e8489665c5d6372597228647de8d485c82",
          "blockNumber": "0x1165268",
          "blockTimestamp": "0x674005b9",
          "transactionHash": "0x65cc2ec22b2f13bb531300e42876fb9d9e4a08e49a98f87a7edbb02f4de78244",
          "transactionIndex": "0x0",
          "logIndex": "0x9",
          "removed": false
        },
        {
          "address": "0x67f3a8170579798d2363252c10c68f7654ba151b",
          "topics": [
            "0xddf252ad1be2c89b69c2b068fc378daa952ba7f163c4a11628f55a4df523b3ef",
            "0x0000000000000000000000000000000000000000000000000000000000000000",
            "0x00000000000000000000000067f3a8170579798d2363252c10c68f7654ba151b"
          ],
          "data": "0x000000000000000000000000000000000000000000a56fa5b99019a5c8000000",
          "blockHash": "0x5047e90d90d5f7dc26cbb4733b21f4e8489665c5d6372597228647de8d485c82",
          "blockNumber": "0x1165268",
          "blockTimestamp": "0x674005b9",
          "transactionHash": "0x65cc2ec22b2f13bb531300e42876fb9d9e4a08e49a98f87a7edbb02f4de78244",
          "transactionIndex": "0x0",
          "logIndex": "0xa",
          "removed": false
        },
        {
          "address": "0x67f3a8170579798d2363252c10c68f7654ba151b",
          "topics": [
            "0x03748fdf3f2653a71724526b9a09758f077bfebef82c6be9345acf194a229541",
            "0x0000000000000000000000000000000000000000000000000000000000000000",
            "0x00000000000000000000000067f3a8170579798d2363252c10c68f7654ba151b"
          ],
          "data": "0x000000000000000000000000000000000000000000a56fa5b99019a5c80000000000000000000000000000000000000000000000000000000000000000000000000000000000000000000000000000000000000000a56fa5b99019a5c80000000000000000000000000000000000000000000000033b2e3c9fd0803ce8000000",
          "blockHash": "0x5047e90d90d5f7dc26cbb4733b21f4e8489665c5d6372597228647de8d485c82",
          "blockNumber": "0x1165268",
          "blockTimestamp": "0x674005b9",
          "transactionHash": "0x65cc2ec22b2f13bb531300e42876fb9d9e4a08e49a98f87a7edbb02f4de78244",
          "transactionIndex": "0x0",
          "logIndex": "0xb",
          "removed": false
        },
        {
          "address": "0x999b45bb215209e567faf486515af43b8353e393",
          "topics": [
            "0x8c5be1e5ebec7d5bd14f71427d1e84f3dd0314c0f7b2291e5b200ac8c7c3b925",
            "0x00000000000000000000000067f3a8170579798d2363252c10c68f7654ba151b",
            "0x00000000000000000000000027f971cb582bf9e50f397e4d29a5c7a34f11faa2"
          ],
          "data": "0x0000000000000000000000000000000000000000000000006c5fe61dfaa2291a",
          "blockHash": "0x5047e90d90d5f7dc26cbb4733b21f4e8489665c5d6372597228647de8d485c82",
          "blockNumber": "0x1165268",
          "blockTimestamp": "0x674005b9",
          "transactionHash": "0x65cc2ec22b2f13bb531300e42876fb9d9e4a08e49a98f87a7edbb02f4de78244",
          "transactionIndex": "0x0",
          "logIndex": "0xc",
          "removed": false
        },
        {
          "address": "0x67f3a8170579798d2363252c10c68f7654ba151b",
          "topics": [
            "0x8c5be1e5ebec7d5bd14f71427d1e84f3dd0314c0f7b2291e5b200ac8c7c3b925",
            "0x00000000000000000000000067f3a8170579798d2363252c10c68f7654ba151b",
            "0x00000000000000000000000027f971cb582bf9e50f397e4d29a5c7a34f11faa2"
          ],
          "data": "0x000000000000000000000000000000000000000000a56fa5b99019a5c8000000",
          "blockHash": "0x5047e90d90d5f7dc26cbb4733b21f4e8489665c5d6372597228647de8d485c82",
          "blockNumber": "0x1165268",
          "blockTimestamp": "0x674005b9",
          "transactionHash": "0x65cc2ec22b2f13bb531300e42876fb9d9e4a08e49a98f87a7edbb02f4de78244",
          "transactionIndex": "0x0",
          "logIndex": "0xd",
          "removed": false
        },
        {
          "address": "0x67f3a8170579798d2363252c10c68f7654ba151b",
          "topics": [
            "0xddf252ad1be2c89b69c2b068fc378daa952ba7f163c4a11628f55a4df523b3ef",
            "0x00000000000000000000000067f3a8170579798d2363252c10c68f7654ba151b",
            "0x0000000000000000000000005c71bc72d13ea07fa35c582b30356ccf1f126469"
          ],
          "data": "0x000000000000000000000000000000000000000000a56fa5b99019a5c7fffb1e",
          "blockHash": "0x5047e90d90d5f7dc26cbb4733b21f4e8489665c5d6372597228647de8d485c82",
          "blockNumber": "0x1165268",
          "blockTimestamp": "0x674005b9",
          "transactionHash": "0x65cc2ec22b2f13bb531300e42876fb9d9e4a08e49a98f87a7edbb02f4de78244",
          "transactionIndex": "0x0",
          "logIndex": "0xe",
          "removed": false
        },
        {
          "address": "0x67f3a8170579798d2363252c10c68f7654ba151b",
          "topics": [
            "0x03748fdf3f2653a71724526b9a09758f077bfebef82c6be9345acf194a229541",
            "0x00000000000000000000000067f3a8170579798d2363252c10c68f7654ba151b",
            "0x0000000000000000000000005c71bc72d13ea07fa35c582b30356ccf1f126469"
          ],
          "data": "0x000000000000000000000000000000000000000000a56fa5b99019a5c7fffb1e00000000000000000000000000000000000000000000000000000000000004e2000000000000000000000000000000000000000000a56fa5b99019a5c7fffb1e0000000000000000000000000000000000000000033b2e3c9fd0803ce8000000",
          "blockHash": "0x5047e90d90d5f7dc26cbb4733b21f4e8489665c5d6372597228647de8d485c82",
          "blockNumber": "0x1165268",
          "blockTimestamp": "0x674005b9",
          "transactionHash": "0x65cc2ec22b2f13bb531300e42876fb9d9e4a08e49a98f87a7edbb02f4de78244",
          "transactionIndex": "0x0",
          "logIndex": "0xf",
          "removed": false
        },
        {
          "address": "0x999b45bb215209e567faf486515af43b8353e393",
          "topics": [
            "0xddf252ad1be2c89b69c2b068fc378daa952ba7f163c4a11628f55a4df523b3ef",
            "0x00000000000000000000000067f3a8170579798d2363252c10c68f7654ba151b",
            "0x0000000000000000000000005c71bc72d13ea07fa35c582b30356ccf1f126469"
          ],
          "data": "0x0000000000000000000000000000000000000000000000006c5fe61dfaa220c0",
          "blockHash": "0x5047e90d90d5f7dc26cbb4733b21f4e8489665c5d6372597228647de8d485c82",
          "blockNumber": "0x1165268",
          "blockTimestamp": "0x674005b9",
          "transactionHash": "0x65cc2ec22b2f13bb531300e42876fb9d9e4a08e49a98f87a7edbb02f4de78244",
          "transactionIndex": "0x0",
          "logIndex": "0x10",
          "removed": false
        },
        {
          "address": "0x5c71bc72d13ea07fa35c582b30356ccf1f126469",
          "topics": [
            "0x7a53080ba414158be7ec69b987b5fb7d07dee101fe85488f0853ae16239d0bde",
            "0x00000000000000000000000027f971cb582bf9e50f397e4d29a5c7a34f11faa2",
            "0xfffffffffffffffffffffffffffffffffffffffffffffffffffffffffff27660",
            "0x00000000000000000000000000000000000000000000000000000000000d89a0"
          ],
          "data": "0x00000000000000000000000027f971cb582bf9e50f397e4d29a5c7a34f11faa200000000000000000000000000000000000000000000085e64539bf35bfd9dd1000000000000000000000000000000000000000000a56fa5b99019a5c7fffb1e0000000000000000000000000000000000000000000000006c5fe61dfaa220c0",
          "blockHash": "0x5047e90d90d5f7dc26cbb4733b21f4e8489665c5d6372597228647de8d485c82",
          "blockNumber": "0x1165268",
          "blockTimestamp": "0x674005b9",
          "transactionHash": "0x65cc2ec22b2f13bb531300e42876fb9d9e4a08e49a98f87a7edbb02f4de78244",
          "transactionIndex": "0x0",
          "logIndex": "0x11",
          "removed": false
        },
        {
          "address": "0x27f971cb582bf9e50f397e4d29a5c7a34f11faa2",
          "topics": [
            "0xddf252ad1be2c89b69c2b068fc378daa952ba7f163c4a11628f55a4df523b3ef",
            "0x0000000000000000000000000000000000000000000000000000000000000000",
            "0x00000000000000000000000067f3a8170579798d2363252c10c68f7654ba151b",
            "0x0000000000000000000000000000000000000000000000000000000000000a33"
          ],
          "data": "0x",
          "blockHash": "0x5047e90d90d5f7dc26cbb4733b21f4e8489665c5d6372597228647de8d485c82",
          "blockNumber": "0x1165268",
          "blockTimestamp": "0x674005b9",
          "transactionHash": "0x65cc2ec22b2f13bb531300e42876fb9d9e4a08e49a98f87a7edbb02f4de78244",
          "transactionIndex": "0x0",
          "logIndex": "0x12",
          "removed": false
        },
        {
          "address": "0x27f971cb582bf9e50f397e4d29a5c7a34f11faa2",
          "topics": [
            "0x3067048beee31b25b2f1681f88dac838c8bba36af25bfb2b7cf7473a5847e35f",
            "0x0000000000000000000000000000000000000000000000000000000000000a33"
          ],
          "data": "0x00000000000000000000000000000000000000000000085e64539bf35bfd9dd1000000000000000000000000000000000000000000a56fa5b99019a5c7fffb1e0000000000000000000000000000000000000000000000006c5fe61dfaa220c0",
          "blockHash": "0x5047e90d90d5f7dc26cbb4733b21f4e8489665c5d6372597228647de8d485c82",
          "blockNumber": "0x1165268",
          "blockTimestamp": "0x674005b9",
          "transactionHash": "0x65cc2ec22b2f13bb531300e42876fb9d9e4a08e49a98f87a7edbb02f4de78244",
          "transactionIndex": "0x0",
          "logIndex": "0x13",
          "removed": false
        },
        {
          "address": "0x67f3a8170579798d2363252c10c68f7654ba151b",
          "topics": [
            "0x6b2d56ef614fc384812413f827d3e486737a61c4a793c0819634b02a6534fe55",
            "0x00000000000000000000000067f3a8170579798d2363252c10c68f7654ba151b",
            "0x0000000000000000000000005c71bc72d13ea07fa35c582b30356ccf1f126469"
          ],
          "data": "0x0000000000000000000000000000000000000000000000006c5fe61dfaa2291a000000000000000000000000000000000000000000a56fa5b99019a5c80000000000000000000000000000000000000000000000000000000000000000000a330000000000000000000000000000000000000000000000000000000000000001",
          "blockHash": "0x5047e90d90d5f7dc26cbb4733b21f4e8489665c5d6372597228647de8d485c82",
          "blockNumber": "0x1165268",
          "blockTimestamp": "0x674005b9",
          "transactionHash": "0x65cc2ec22b2f13bb531300e42876fb9d9e4a08e49a98f87a7edbb02f4de78244",
          "transactionIndex": "0x0",
          "logIndex": "0x14",
          "removed": false
        },
        {
          "address": "0x67f3a8170579798d2363252c10c68f7654ba151b",
          "topics": [
            "0xa1e3720a50948c972c9d045a830d2703f63011fc5d18f65219da114e0809d863",
            "0x00000000000000000000000096d9894371d8cf0c566f557bc8830f881e4d6c7a",
            "0x00000000000000000000000096d9894371d8cf0c566f557bc8830f881e4d6c7a",
            "0x0000000000000000000000000000000000000000000000000000000000000000"
          ],
          "data": "0x00000000000000000000000000000000000000000000000072ee679f8969aace000000000000000000000000000000000000000000000000039bdf3075f08fc10000000000000000000000000000000000000000000000006ffbc54e7092b8d800000000000000000000000000000000000000000295be96e64066972000000000000000000000000000000000000000000000000295be96e64066972000000000000000000000000000000000000000000000000000000000000000000001000000000000000000000000000000000000000000033b2e3c9fd0803ce80000000000000000000000000000000000000000000000000000000000000000000001000000000000000000000000000000000000000000000000000000000000000e47726164756174696f6e20427579000000000000000000000000000000000000",
          "blockHash": "0x5047e90d90d5f7dc26cbb4733b21f4e8489665c5d6372597228647de8d485c82",
          "blockNumber": "0x1165268",
          "blockTimestamp": "0x674005b9",
          "transactionHash": "0x65cc2ec22b2f13bb531300e42876fb9d9e4a08e49a98f87a7edbb02f4de78244",
          "transactionIndex": "0x0",
          "logIndex": "0x15",
          "removed": false
        }
      ],
      "logsBloom": "0x001000000000100000001000000040000041000000004040000100000000000000004080000000000000080001000000000000000008000004000110002000008200000000000000000080080a0000000000100020000000000000008010000002000000820000000000000000200800000000000800260000000010000000010040008008000200000101100040001000002009000010000800000040000000020000040001400040800108080040000000000005001020000000000000000000000002002000008400080200000000000000000000010000000400000022080010000120000000000401000010000000000000000800400000000000000800",
      "type": "0x2",
      "transactionHash": "0x65cc2ec22b2f13bb531300e42876fb9d9e4a08e49a98f87a7edbb02f4de78244",
      "transactionIndex": "0x0",
      "blockHash": "0x5047e90d90d5f7dc26cbb4733b21f4e8489665c5d6372597228647de8d485c82",
      "blockNumber": "0x1165268",
      "gasUsed": "0xcf224",
      "effectiveGasPrice": "0x18788",
      "blobGasPrice": "0x1",
      "from": "0x96d9894371d8cf0c566f557bc8830f881e4d6c7a",
      "to": "0x67f3a8170579798d2363252c10c68f7654ba151b",
      "contractAddress": null
    },
    {
      "status": "0x1",
      "cumulativeGasUsed": "0x36241",
      "logs": [
        {
          "address": "0x7777777f279eba3d3ad8f4e708545291a6fdba8b",
          "topics": [
            "0x5b769452a2090142e059af5137c5b92a3e966cfb03b794cd01ac195d196c0001",
            "0x00000000000000000000000067f3a8170579798d2363252c10c68f7654ba151b",
            "0x00000000000000000000000096d9894371d8cf0c566f557bc8830f881e4d6c7a",
            "0x2195aeb300000000000000000000000000000000000000000000000000000000"
          ],
          "data": "0x000000000000000000000000000000000000000000000000003b27163782a00000000000000000000000000000000000000000000000000000000000000000400000000000000000000000000000000000000000000000000000000000000000",
          "blockHash": "0x30ff9b79f69afccc84f0a756402ba191d28eb1feca7cd47b2d88461e52103265",
          "blockNumber": "0x1165269",
          "blockTimestamp": "0x674005b9",
          "transactionHash": "0x22f039931421bece75062ceb1986f04634fba4cfccdc73cb44ea081a63b5ca8f",
          "transactionIndex": "0x0",
          "logIndex": "0x0",
          "removed": false
        },
        {
          "address": "0x7777777f279eba3d3ad8f4e708545291a6fdba8b",
          "topics": [
            "0x5b769452a2090142e059af5137c5b92a3e966cfb03b794cd01ac195d196c0001",
            "0x00000000000000000000000067f3a8170579798d2363252c10c68f7654ba151b",
            "0x00000000000000000000000097a027c65e52d8617e69770a782d638585f521eb",
            "0x4f45123800000000000000000000000000000000000000000000000000000000"
          ],
          "data": "0x000000000000000000000000000000000000000000000000000bd49e0b1a200000000000000000000000000000000000000000000000000000000000000000400000000000000000000000000000000000000000000000000000000000000000",
          "blockHash": "0x30ff9b79f69afccc84f0a756402ba191d28eb1feca7cd47b2d88461e52103265",
          "blockNumber": "0x1165269",
          "blockTimestamp": "0x674005b9",
          "transactionHash": "0x22f039931421bece75062ceb1986f04634fba4cfccdc73cb44ea081a63b5ca8f",
          "transactionIndex": "0x0",
          "logIndex": "0x1",
          "removed": false
        },
        {
          "address": "0x7777777f279eba3d3ad8f4e708545291a6fdba8b",
          "topics": [
            "0x5b769452a2090142e059af5137c5b92a3e966cfb03b794cd01ac195d196c0001",
            "0x00000000000000000000000067f3a8170579798d2363252c10c68f7654ba151b",
            "0x00000000000000000000000097a027c65e52d8617e69770a782d638585f521eb",
            "0x2c831a5500000000000000000000000000000000000000000000000000000000"
          ],
          "data": "0x000000000000000000000000000000000000000000000000000bd49e0b1a200000000000000000000000000000000000000000000000000000000000000000400000000000000000000000000000000000000000000000000000000000000000",
          "blockHash": "0x30ff9b79f69afccc84f0a756402ba191d28eb1feca7cd47b2d88461e52103265",
          "blockNumber": "0x1165269",
          "blockTimestamp": "0x674005b9",
          "transactionHash": "0x22f039931421bece75062ceb1986f04634fba4cfccdc73cb44ea081a63b5ca8f",
          "transactionIndex": "0x0",
          "logIndex": "0x2",
          "removed": false
        },
        {
          "address": "0x7777777f279eba3d3ad8f4e708545291a6fdba8b",
          "topics": [
            "0x5b769452a2090142e059af5137c5b92a3e966cfb03b794cd01ac195d196c0001",
            "0x00000000000000000000000067f3a8170579798d2363252c10c68f7654ba151b",
            "0x0000000000000000000000009988c79fa6daa5c06b31236628ee80361e7ebecd",
            "0x466e3cd400000000000000000000000000000000000000000000000000000000"
          ],
          "data": "0x000000000000000000000000000000000000000000000000000bd49e0b1a200000000000000000000000000000000000000000000000000000000000000000400000000000000000000000000000000000000000000000000000000000000000",
          "blockHash": "0x30ff9b79f69afccc84f0a756402ba191d28eb1feca7cd47b2d88461e52103265",
          "blockNumber": "0x1165269",
          "blockTimestamp": "0x674005b9",
          "transactionHash": "0x22f039931421bece75062ceb1986f04634fba4cfccdc73cb44ea081a63b5ca8f",
          "transactionIndex": "0x0",
          "logIndex": "0x3",
          "removed": false
        },
        {
          "address": "0x7777777f279eba3d3ad8f4e708545291a6fdba8b",
          "topics": [
            "0x5b769452a2090142e059af5137c5b92a3e966cfb03b794cd01ac195d196c0001",
            "0x00000000000000000000000067f3a8170579798d2363252c10c68f7654ba151b",
            "0x00000000000000000000000097a027c65e52d8617e69770a782d638585f521eb",
            "0x404ca69f00000000000000000000000000000000000000000000000000000000"
          ],
          "data": "0x0000000000000000000000000000000000000000000000000017a93c1634400000000000000000000000000000000000000000000000000000000000000000400000000000000000000000000000000000000000000000000000000000000000",
          "blockHash": "0x30ff9b79f69afccc84f0a756402ba191d28eb1feca7cd47b2d88461e52103265",
          "blockNumber": "0x1165269",
          "blockTimestamp": "0x674005b9",
          "transactionHash": "0x22f039931421bece75062ceb1986f04634fba4cfccdc73cb44ea081a63b5ca8f",
          "transactionIndex": "0x0",
          "logIndex": "0x4",
          "removed": false
        },
        {
          "address": "0x67f3a8170579798d2363252c10c68f7654ba151b",
          "topics": [
            "0x101f282711d5d43488168e09b492f51ffff91932431fa1785050ed90fc1b5bc0",
            "0x00000000000000000000000096d9894371d8cf0c566f557bc8830f881e4d6c7a",
            "0x00000000000000000000000097a027c65e52d8617e69770a782d638585f521eb",
            "0x00000000000000000000000097a027c65e52d8617e69770a782d638585f521eb"
          ],
          "data": "0x0000000000000000000000009988c79fa6daa5c06b31236628ee80361e7ebecd00000000000000000000000097a027c65e52d8617e69770a782d638585f521eb000000000000000000000000000000000000000000000000003b27163782a000000000000000000000000000000000000000000000000000000bd49e0b1a2000000000000000000000000000000000000000000000000000000bd49e0b1a2000000000000000000000000000000000000000000000000000000bd49e0b1a20000000000000000000000000000000000000000000000000000017a93c16344000",
          "blockHash": "0x30ff9b79f69afccc84f0a756402ba191d28eb1feca7cd47b2d88461e52103265",
          "blockNumber": "0x1165269",
          "blockTimestamp": "0x674005b9",
          "transactionHash": "0x22f039931421bece75062ceb1986f04634fba4cfccdc73cb44ea081a63b5ca8f",
          "transactionIndex": "0x0",
          "logIndex": "0x5",
          "removed": false
        },
        {
          "address": "0x999b45bb215209e567faf486515af43b8353e393",
          "topics": [
            "0xddf252ad1be2c89b69c2b068fc378daa952ba7f163c4a11628f55a4df523b3ef",
            "0x0000000000000000000000000000000000000000000000000000000000000000",
            "0x00000000000000000000000067f3a8170579798d2363252c10c68f7654ba151b"
          ],
          "data": "0x0000000000000000000000000000000000000000000000000d6a6887385ec000",
          "blockHash": "0x30ff9b79f69afccc84f0a756402ba191d28eb1feca7cd47b2d88461e52103265",
          "blockNumber": "0x1165269",
          "blockTimestamp": "0x674005b9",
          "transactionHash": "0x22f039931421bece75062ceb1986f04634fba4cfccdc73cb44ea081a63b5ca8f",
          "transactionIndex": "0x0",
          "logIndex": "0x6",
          "removed": false
        },
        {
          "address": "0x999b45bb215209e567faf486515af43b8353e393",
          "topics": [
            "0xe1fffcc4923d04b559f4d29a8bfc6cda04eb5b0d3c460751c2402c5c5cc9109c",
            "0x00000000000000000000000067f3a8170579798d2363252c10c68f7654ba151b"
          ],
          "data": "0x0000000000000000000000000000000000000000000000000d6a6887385ec000",
          "blockHash": "0x30ff9b79f69afccc84f0a756402ba191d28eb1feca7cd47b2d88461e52103265",
          "blockNumber": "0x1165269",
          "blockTimestamp": "0x674005b9",
          "transactionHash": "0x22f039931421bece75062ceb1986f04634fba4cfccdc73cb44ea081a63b5ca8f",
          "transactionIndex": "0x0",
          "logIndex": "0x7",
          "removed": false
        },
        {
          "address": "0x999b45bb215209e567faf486515af43b8353e393",
          "topics": [
            "0x8c5be1e5ebec7d5bd14f71427d1e84f3dd0314c0f7b2291e5b200ac8c7c3b925",
            "0x00000000000000000000000067f3a8170579798d2363252c10c68f7654ba151b",
            "0x00000000000000000000000094cc0aac535ccdb3c01d6787d6413c739ae12bc4"
          ],
          "data": "0x0000000000000000000000000000000000000000000000000d6a6887385ec000",
          "blockHash": "0x30ff9b79f69afccc84f0a756402ba191d28eb1feca7cd47b2d88461e52103265",
          "blockNumber": "0x1165269",
          "blockTimestamp": "0x674005b9",
          "transactionHash": "0x22f039931421bece75062ceb1986f04634fba4cfccdc73cb44ea081a63b5ca8f",
          "transactionIndex": "0x0",
          "logIndex": "0x8",
          "removed": false
        },
        {
          "address": "0x67f3a8170579798d2363252c10c68f7654ba151b",
          "topics": [
            "0xddf252ad1be2c89b69c2b068fc378daa952ba7f163c4a11628f55a4df523b3ef",
            "0x0000000000000000000000005c71bc72d13ea07fa35c582b30356ccf1f126469",
            "0x00000000000000000000000096d9894371d8cf0c566f557bc8830f881e4d6c7a"
          ],
          "data": "0x00000000000000000000000000000000000000000012371e40753ac5078711e9",
          "blockHash": "0x30ff9b79f69afccc84f0a756402ba191d28eb1feca7cd47b2d88461e52103265",
          "blockNumber": "0x1165269",
          "blockTimestamp": "0x674005b9",
          "transactionHash": "0x22f039931421bece75062ceb1986f04634fba4cfccdc73cb44ea081a63b5ca8f",
          "transactionIndex": "0x0",
          "logIndex": "0x9",
          "removed": false
        },
        {
          "address": "0x67f3a8170579798d2363252c10c68f7654ba151b",
          "topics": [
            "0x03748fdf3f2653a71724526b9a09758f077bfebef82c6be9345acf194a229541",
            "0x0000000000000000000000005c71bc72d13ea07fa35c582b30356ccf1f126469",
            "0x00000000000000000000000096d9894371d8cf0c566f557bc8830f881e4d6c7a"
          ],
          "data": "0x00000000000000000000000000000000000000000012371e40753ac5078711e9000000000000000000000000000000000000000000933887791adee0c078e935000000000000000000000000000000000000000002a7f5b526b5a15c278711e90000000000000000000000000000000000000000033b2e3c9fd0803ce8000000",
          "blockHash": "0x30ff9b79f69afccc84f0a756402ba191d28eb1feca7cd47b2d88461e52103265",
          "blockNumber": "0x1165269",
          "blockTimestamp": "0x674005b9",
          "transactionHash": "0x22f039931421bece75062ceb1986f04634fba4cfccdc73cb44ea081a63b5ca8f",
          "transactionIndex": "0x0",
          "logIndex": "0xa",
          "removed": false
        },
        {
          "address": "0x999b45bb215209e567faf486515af43b8353e393",
          "topics": [
            "0xddf252ad1be2c89b69c2b068fc378daa952ba7f163c4a11628f55a4df523b3ef",
            "0x00000000000000000000000067f3a8170579798d2363252c10c68f7654ba151b",
            "0x0000000000000000000000005c71bc72d13ea07fa35c582b30356ccf1f126469"
          ],
          "data": "0x0000000000000000000000000000000000000000000000000d6a6887385ec000",
          "blockHash": "0x30ff9b79f69afccc84f0a756402ba191d28eb1feca7cd47b2d88461e52103265",
          "blockNumber": "0x1165269",
          "blockTimestamp": "0x674005b9",
          "transactionHash": "0x22f039931421bece75062ceb1986f04634fba4cfccdc73cb44ea081a63b5ca8f",
          "transactionIndex": "0x0",
          "logIndex": "0xb",
          "removed": false
        },
        {
          "address": "0x5c71bc72d13ea07fa35c582b30356ccf1f126469",
          "topics": [
            "0xc42079f94a6350d7e6235f29174924f928cc2ac818eb64fed8004e115fbcca67",
            "0x00000000000000000000000094cc0aac535ccdb3c01d6787d6413c739ae12bc4",
            "0x00000000000000000000000096d9894371d8cf0c566f557bc8830f881e4d6c7a"
          ],
          "data": "0xffffffffffffffffffffffffffffffffffffffffffedc8e1bf8ac53af878ee170000000000000000000000000000000000000000000000000d6a6887385ec0000000000000000000000000000000000000000000000e8d5f42c2a2df1f28d0f600000000000000000000000000000000000000000000085e64539bf35bfd9dd1fffffffffffffffffffffffffffffffffffffffffffffffffffffffffffd6ebb",
          "blockHash": "0x30ff9b79f69afccc84f0a756402ba191d28eb1feca7cd47b2d88461e52103265",
          "blockNumber": "0x1165269",
          "blockTimestamp": "0x674005b9",
          "transactionHash": "0x22f039931421bece75062ceb1986f04634fba4cfccdc73cb44ea081a63b5ca8f",
          "transactionIndex": "0x0",
          "logIndex": "0xc",
          "removed": false
        },
        {
          "address": "0x67f3a8170579798d2363252c10c68f7654ba151b",
          "topics": [
            "0xa1e3720a50948c972c9d045a830d2703f63011fc5d18f65219da114e0809d863",
            "0x00000000000000000000000096d9894371d8cf0c566f557bc8830f881e4d6c7a",
            "0x00000000000000000000000096d9894371d8cf0c566f557bc8830f881e4d6c7a",
            "0x0000000000000000000000000000000000000000000000000000000000000000"
          ],
          "data": "0x0000000000000000000000000000000000000000000000000de0b6b3a764000000000000000000000000000000000000000000000000000000764e2c6f0540000000000000000000000000000000000000000000000000000d6a6887385ec00000000000000000000000000000000000000000000012371e40753ac5078711e9000000000000000000000000000000000000000002a7f5b526b5a15c278711e900000000000000000000000000000000000000000000000000000000000001000000000000000000000000000000000000000000033b2e3c9fd0803ce800000000000000000000000000000000000000000000000000000000000000000000010000000000000000000000000000000000000000000000000000000000000013506f73742047726164756174696f6e2042757900000000000000000000000000",
          "blockHash": "0x30ff9b79f69afccc84f0a756402ba191d28eb1feca7cd47b2d88461e52103265",
          "blockNumber": "0x1165269",
          "blockTimestamp": "0x674005b9",
          "transactionHash": "0x22f039931421bece75062ceb1986f04634fba4cfccdc73cb44ea081a63b5ca8f",
          "transactionIndex": "0x0",
          "logIndex": "0xd",
          "removed": false
        }
      ],
      "logsBloom": "0x00100000000010000000000000000000004100000000004000010000000000000000008000000000000008000100000000000000000020000000001000200000820000000000000800008008020000000000100000000000000000008010000000000000020000000000000000200800000000000000060000000010000800000040008000000200000001100040001000000401000010000800000040000000020000040001400040800108080040008000000005001000000000000000000000000002002000008400000200000000000000001000000000000000000022080010000120000000000401000010000000000000000800400000000000000000",
      "type": "0x2",
      "transactionHash": "0x22f039931421bece75062ceb1986f04634fba4cfccdc73cb44ea081a63b5ca8f",
      "transactionIndex": "0x0",
      "blockHash": "0x30ff9b79f69afccc84f0a756402ba191d28eb1feca7cd47b2d88461e52103265",
      "blockNumber": "0x1165269",
      "gasUsed": "0x36241",
      "effectiveGasPrice": "0x1876c",
      "blobGasPrice": "0x1",
      "from": "0x96d9894371d8cf0c566f557bc8830f881e4d6c7a",
      "to": "0x67f3a8170579798d2363252c10c68f7654ba151b",
      "contractAddress": null
    },
    {
      "status": "0x1",
      "cumulativeGasUsed": "0x420b3",
      "logs": [
        {
          "address": "0x67f3a8170579798d2363252c10c68f7654ba151b",
          "topics": [
            "0x8c5be1e5ebec7d5bd14f71427d1e84f3dd0314c0f7b2291e5b200ac8c7c3b925",
            "0x00000000000000000000000096d9894371d8cf0c566f557bc8830f881e4d6c7a",
            "0x00000000000000000000000067f3a8170579798d2363252c10c68f7654ba151b"
          ],
          "data": "0x000000000000000000000000000000000000000000091b8f203a9d6283c388f4",
          "blockHash": "0x30ff9b79f69afccc84f0a756402ba191d28eb1feca7cd47b2d88461e52103265",
          "blockNumber": "0x1165269",
          "blockTimestamp": "0x674005b9",
          "transactionHash": "0x69612194346d4967694952c039d5f8dcfb783c80c9e6a52b69d25908b0cd7b3f",
          "transactionIndex": "0x1",
          "logIndex": "0xe",
          "removed": false
        }
      ],
      "logsBloom": "0x00000000000000000000000000000000000000000000000000000000000000000000008000000000000000000000000000000000000000000000001000200000020000000000000000000000000000000000100000000000000000000000000000000000000000000000000000000000000000000000020000000000000000000000000000000000000000000040000000000000000000000000000000000000020000000000000000000000000000000000000000000000000000000000000000000000000000000000000000000000000000000000000000000000000000000010000120000000000001000000000000000000000000000000000000000000",
      "type": "0x2",
      "transactionHash": "0x69612194346d4967694952c039d5f8dcfb783c80c9e6a52b69d25908b0cd7b3f",
      "transactionIndex": "0x1",
      "blockHash": "0x30ff9b79f69afccc84f0a756402ba191d28eb1feca7cd47b2d88461e52103265",
      "blockNumber": "0x1165269",
      "gasUsed": "0xbe72",
      "effectiveGasPrice": "0x1876c",
      "blobGasPrice": "0x1",
      "from": "0x96d9894371d8cf0c566f557bc8830f881e4d6c7a",
      "to": "0x67f3a8170579798d2363252c10c68f7654ba151b",
      "contractAddress": null
    },
    {
      "status": "0x1",
      "cumulativeGasUsed": "0x7c189",
      "logs": [
        {
          "address": "0x67f3a8170579798d2363252c10c68f7654ba151b",
          "topics": [
            "0xddf252ad1be2c89b69c2b068fc378daa952ba7f163c4a11628f55a4df523b3ef",
            "0x00000000000000000000000096d9894371d8cf0c566f557bc8830f881e4d6c7a",
            "0x00000000000000000000000067f3a8170579798d2363252c10c68f7654ba151b"
          ],
          "data": "0x000000000000000000000000000000000000000000091b8f203a9d6283c388f4",
          "blockHash": "0x30ff9b79f69afccc84f0a756402ba191d28eb1feca7cd47b2d88461e52103265",
          "blockNumber": "0x1165269",
          "blockTimestamp": "0x674005b9",
          "transactionHash": "0x1d33d4868c3fac945bdb28b8419e50542dbbbcc2c55a1a020ea9be3f8a61b89f",
          "transactionIndex": "0x2",
          "logIndex": "0xf",
          "removed": false
        },
        {
          "address": "0x67f3a8170579798d2363252c10c68f7654ba151b",
          "topics": [
            "0x03748fdf3f2653a71724526b9a09758f077bfebef82c6be9345acf194a229541",
            "0x00000000000000000000000096d9894371d8cf0c566f557bc8830f881e4d6c7a",
            "0x00000000000000000000000067f3a8170579798d2363252c10c68f7654ba151b"
          ],
          "data": "0x000000000000000000000000000000000000000000091b8f203a9d6283c388f40000000000000000000000000000000000000000029eda26067b03f9a3c388f5000000000000000000000000000000000000000000091b8f203a9d6283c38dd60000000000000000000000000000000000000000033b2e3c9fd0803ce8000000",
          "blockHash": "0x30ff9b79f69afccc84f0a756402ba191d28eb1feca7cd47b2d88461e52103265",
          "blockNumber": "0x1165269",
          "blockTimestamp": "0x674005b9",
          "transactionHash": "0x1d33d4868c3fac945bdb28b8419e50542dbbbcc2c55a1a020ea9be3f8a61b89f",
          "transactionIndex": "0x2",
          "logIndex": "0x10",
          "removed": false
        },
        {
          "address": "0x67f3a8170579798d2363252c10c68f7654ba151b",
          "topics": [
            "0x8c5be1e5ebec7d5bd14f71427d1e84f3dd0314c0f7b2291e5b200ac8c7c3b925",
            "0x00000000000000000000000067f3a8170579798d2363252c10c68f7654ba151b",
            "0x00000000000000000000000094cc0aac535ccdb3c01d6787d6413c739ae12bc4"
          ],
          "data": "0x000000000000000000000000000000000000000000091b8f203a9d6283c388f4",
          "blockHash": "0x30ff9b79f69afccc84f0a756402ba191d28eb1feca7cd47b2d88461e52103265",
          "blockNumber": "0x1165269",
          "blockTimestamp": "0x674005b9",
          "transactionHash": "0x1d33d4868c3fac945bdb28b8419e50542dbbbcc2c55a1a020ea9be3f8a61b89f",
          "transactionIndex": "0x2",
          "logIndex": "0x11",
          "removed": false
        },
        {
          "address": "0x999b45bb215209e567faf486515af43b8353e393",
          "topics": [
            "0xddf252ad1be2c89b69c2b068fc378daa952ba7f163c4a11628f55a4df523b3ef",
            "0x0000000000000000000000005c71bc72d13ea07fa35c582b30356ccf1f126469",
            "0x00000000000000000000000067f3a8170579798d2363252c10c68f7654ba151b"
          ],
          "data": "0x00000000000000000000000000000000000000000000000007177bec981f4cc5",
          "blockHash": "0x30ff9b79f69afccc84f0a756402ba191d28eb1feca7cd47b2d88461e52103265",
          "blockNumber": "0x1165269",
          "blockTimestamp": "0x674005b9",
          "transactionHash": "0x1d33d4868c3fac945bdb28b8419e50542dbbbcc2c55a1a020ea9be3f8a61b89f",
          "transactionIndex": "0x2",
          "logIndex": "0x12",
          "removed": false
        },
        {
          "address": "0x67f3a8170579798d2363252c10c68f7654ba151b",
          "topics": [
            "0xddf252ad1be2c89b69c2b068fc378daa952ba7f163c4a11628f55a4df523b3ef",
            "0x00000000000000000000000067f3a8170579798d2363252c10c68f7654ba151b",
            "0x0000000000000000000000005c71bc72d13ea07fa35c582b30356ccf1f126469"
          ],
          "data": "0x000000000000000000000000000000000000000000091b8f203a9d6283c388f4",
          "blockHash": "0x30ff9b79f69afccc84f0a756402ba191d28eb1feca7cd47b2d88461e52103265",
          "blockNumber": "0x1165269",
          "blockTimestamp": "0x674005b9",
          "transactionHash": "0x1d33d4868c3fac945bdb28b8419e50542dbbbcc2c55a1a020ea9be3f8a61b89f",
          "transactionIndex": "0x2",
          "logIndex": "0x13",
          "removed": false
        },
        {
          "address": "0x67f3a8170579798d2363252c10c68f7654ba151b",
          "topics": [
            "0x03748fdf3f2653a71724526b9a09758f077bfebef82c6be9345acf194a229541",
            "0x00000000000000000000000067f3a8170579798d2363252c10c68f7654ba151b",
            "0x0000000000000000000000005c71bc72d13ea07fa35c582b30356ccf1f126469"
          ],
          "data": "0x000000000000000000000000000000000000000000091b8f203a9d6283c388f400000000000000000000000000000000000000000000000000000000000004e20000000000000000000000000000000000000000009c541699557c43443c72290000000000000000000000000000000000000000033b2e3c9fd0803ce8000000",
          "blockHash": "0x30ff9b79f69afccc84f0a756402ba191d28eb1feca7cd47b2d88461e52103265",
          "blockNumber": "0x1165269",
          "blockTimestamp": "0x674005b9",
          "transactionHash": "0x1d33d4868c3fac945bdb28b8419e50542dbbbcc2c55a1a020ea9be3f8a61b89f",
          "transactionIndex": "0x2",
          "logIndex": "0x14",
          "removed": false
        },
        {
          "address": "0x5c71bc72d13ea07fa35c582b30356ccf1f126469",
          "topics": [
            "0xc42079f94a6350d7e6235f29174924f928cc2ac818eb64fed8004e115fbcca67",
            "0x00000000000000000000000094cc0aac535ccdb3c01d6787d6413c739ae12bc4",
            "0x00000000000000000000000067f3a8170579798d2363252c10c68f7654ba151b"
          ],
          "data": "0x000000000000000000000000000000000000000000091b8f203a9d6283c388f4fffffffffffffffffffffffffffffffffffffffffffffffff8e8841367e0b33b0000000000000000000000000000000000000000000db46f680af86bb84fcc2a00000000000000000000000000000000000000000000085e64539bf35bfd9dd1fffffffffffffffffffffffffffffffffffffffffffffffffffffffffffd6a0b",
          "blockHash": "0x30ff9b79f69afccc84f0a756402ba191d28eb1feca7cd47b2d88461e52103265",
          "blockNumber": "0x1165269",
          "blockTimestamp": "0x674005b9",
          "transactionHash": "0x1d33d4868c3fac945bdb28b8419e50542dbbbcc2c55a1a020ea9be3f8a61b89f",
          "transactionIndex": "0x2",
          "logIndex": "0x15",
          "removed": false
        },
        {
          "address": "0x999b45bb215209e567faf486515af43b8353e393",
          "topics": [
            "0xddf252ad1be2c89b69c2b068fc378daa952ba7f163c4a11628f55a4df523b3ef",
            "0x00000000000000000000000067f3a8170579798d2363252c10c68f7654ba151b",
            "0x0000000000000000000000000000000000000000000000000000000000000000"
          ],
          "data": "0x00000000000000000000000000000000000000000000000007177bec981f4cc5",
          "blockHash": "0x30ff9b79f69afccc84f0a756402ba191d28eb1feca7cd47b2d88461e52103265",
          "blockNumber": "0x1165269",
          "blockTimestamp": "0x674005b9",
          "transactionHash": "0x1d33d4868c3fac945bdb28b8419e50542dbbbcc2c55a1a020ea9be3f8a61b89f",
          "transactionIndex": "0x2",
          "logIndex": "0x16",
          "removed": false
        },
        {
          "address": "0x999b45bb215209e567faf486515af43b8353e393",
          "topics": [
            "0x7fcf532c15f0a6db0bd6d0e038bea71d30d808c7d98cb3bf7268a95bf5081b65",
            "0x00000000000000000000000067f3a8170579798d2363252c10c68f7654ba151b"
          ],
          "data": "0x00000000000000000000000000000000000000000000000007177bec981f4cc5",
          "blockHash": "0x30ff9b79f69afccc84f0a756402ba191d28eb1feca7cd47b2d88461e52103265",
          "blockNumber": "0x1165269",
          "blockTimestamp": "0x674005b9",
          "transactionHash": "0x1d33d4868c3fac945bdb28b8419e50542dbbbcc2c55a1a020ea9be3f8a61b89f",
          "transactionIndex": "0x2",
          "logIndex": "0x17",
          "removed": false
        },
        {
          "address": "0x7777777f279eba3d3ad8f4e708545291a6fdba8b",
          "topics": [
            "0x5b769452a2090142e059af5137c5b92a3e966cfb03b794cd01ac195d196c0001",
            "0x00000000000000000000000067f3a8170579798d2363252c10c68f7654ba151b",
            "0x00000000000000000000000096d9894371d8cf0c566f557bc8830f881e4d6c7a",
            "0x2195aeb300000000000000000000000000000000000000000000000000000000"
          ],
          "data": "0x000000000000000000000000000000000000000000000000001e3a51c0205e1700000000000000000000000000000000000000000000000000000000000000400000000000000000000000000000000000000000000000000000000000000000",
          "blockHash": "0x30ff9b79f69afccc84f0a756402ba191d28eb1feca7cd47b2d88461e52103265",
          "blockNumber": "0x1165269",
          "blockTimestamp": "0x674005b9",
          "transactionHash": "0x1d33d4868c3fac945bdb28b8419e50542dbbbcc2c55a1a020ea9be3f8a61b89f",
          "transactionIndex": "0x2",
          "logIndex": "0x18",
          "removed": false
        },
        {
          "address": "0x7777777f279eba3d3ad8f4e708545291a6fdba8b",
          "topics": [
            "0x5b769452a2090142e059af5137c5b92a3e966cfb03b794cd01ac195d196c0001",
            "0x00000000000000000000000067f3a8170579798d2363252c10c68f7654ba151b",
            "0x00000000000000000000000097a027c65e52d8617e69770a782d638585f521eb",
            "0x4f45123800000000000000000000000000000000000000000000000000000000"
          ],
          "data": "0x00000000000000000000000000000000000000000000000000060ba9f339ac6b00000000000000000000000000000000000000000000000000000000000000400000000000000000000000000000000000000000000000000000000000000000",
          "blockHash": "0x30ff9b79f69afccc84f0a756402ba191d28eb1feca7cd47b2d88461e52103265",
          "blockNumber": "0x1165269",
          "blockTimestamp": "0x674005b9",
          "transactionHash": "0x1d33d4868c3fac945bdb28b8419e50542dbbbcc2c55a1a020ea9be3f8a61b89f",
          "transactionIndex": "0x2",
          "logIndex": "0x19",
          "removed": false
        },
        {
          "address": "0x7777777f279eba3d3ad8f4e708545291a6fdba8b",
          "topics": [
            "0x5b769452a2090142e059af5137c5b92a3e966cfb03b794cd01ac195d196c0001",
            "0x00000000000000000000000067f3a8170579798d2363252c10c68f7654ba151b",
            "0x00000000000000000000000097a027c65e52d8617e69770a782d638585f521eb",
            "0x2c831a5500000000000000000000000000000000000000000000000000000000"
          ],
          "data": "0x00000000000000000000000000000000000000000000000000060ba9f339ac6b00000000000000000000000000000000000000000000000000000000000000400000000000000000000000000000000000000000000000000000000000000000",
          "blockHash": "0x30ff9b79f69afccc84f0a756402ba191d28eb1feca7cd47b2d88461e52103265",
          "blockNumber": "0x1165269",
          "blockTimestamp": "0x674005b9",
          "transactionHash": "0x1d33d4868c3fac945bdb28b8419e50542dbbbcc2c55a1a020ea9be3f8a61b89f",
          "transactionIndex": "0x2",
          "logIndex": "0x1a",
          "removed": false
        },
        {
          "address": "0x7777777f279eba3d3ad8f4e708545291a6fdba8b",
          "topics": [
            "0x5b769452a2090142e059af5137c5b92a3e966cfb03b794cd01ac195d196c0001",
            "0x00000000000000000000000067f3a8170579798d2363252c10c68f7654ba151b",
            "0x0000000000000000000000009988c79fa6daa5c06b31236628ee80361e7ebecd",
            "0x466e3cd400000000000000000000000000000000000000000000000000000000"
          ],
          "data": "0x00000000000000000000000000000000000000000000000000060ba9f339ac6b00000000000000000000000000000000000000000000000000000000000000400000000000000000000000000000000000000000000000000000000000000000",
          "blockHash": "0x30ff9b79f69afccc84f0a756402ba191d28eb1feca7cd47b2d88461e52103265",
          "blockNumber": "0x1165269",
          "blockTimestamp": "0x674005b9",
          "transactionHash": "0x1d33d4868c3fac945bdb28b8419e50542dbbbcc2c55a1a020ea9be3f8a61b89f",
          "transactionIndex": "0x2",
          "logIndex": "0x1b",
          "removed": false
        },
        {
          "address": "0x7777777f279eba3d3ad8f4e708545291a6fdba8b",
          "topics": [
            "0x5b769452a2090142e059af5137c5b92a3e966cfb03b794cd01ac195d196c0001",
            "0x00000000000000000000000067f3a8170579798d2363252c10c68f7654ba151b",
            "0x00000000000000000000000097a027c65e52d8617e69770a782d638585f521eb",
            "0x404ca69f00000000000000000000000000000000000000000000000000000000"
          ],
          "data": "0x000000000000000000000000000000000000000000000000000c1753e67358d600000000000000000000000000000000000000000000000000000000000000400000000000000000000000000000000000000000000000000000000000000000",
          "blockHash": "0x30ff9b79f69afccc84f0a756402ba191d28eb1feca7cd47b2d88461e52103265",
          "blockNumber": "0x1165269",
          "blockTimestamp": "0x674005b9",
          "transactionHash": "0x1d33d4868c3fac945bdb28b8419e50542dbbbcc2c55a1a020ea9be3f8a61b89f",
          "transactionIndex": "0x2",
          "logIndex": "0x1c",
          "removed": false
        },
        {
          "address": "0x67f3a8170579798d2363252c10c68f7654ba151b",
          "topics": [
            "0x101f282711d5d43488168e09b492f51ffff91932431fa1785050ed90fc1b5bc0",
            "0x00000000000000000000000096d9894371d8cf0c566f557bc8830f881e4d6c7a",
            "0x00000000000000000000000097a027c65e52d8617e69770a782d638585f521eb",
            "0x00000000000000000000000097a027c65e52d8617e69770a782d638585f521eb"
          ],
          "data": "0x0000000000000000000000009988c79fa6daa5c06b31236628ee80361e7ebecd00000000000000000000000097a027c65e52d8617e69770a782d638585f521eb000000000000000000000000000000000000000000000000001e3a51c0205e1700000000000000000000000000000000000000000000000000060ba9f339ac6b00000000000000000000000000000000000000000000000000060ba9f339ac6b00000000000000000000000000000000000000000000000000060ba9f339ac6b000000000000000000000000000000000000000000000000000c1753e67358d6",
          "blockHash": "0x30ff9b79f69afccc84f0a756402ba191d28eb1feca7cd47b2d88461e52103265",
          "blockNumber": "0x1165269",
          "blockTimestamp": "0x674005b9",
          "transactionHash": "0x1d33d4868c3fac945bdb28b8419e50542dbbbcc2c55a1a020ea9be3f8a61b89f",
          "transactionIndex": "0x2",
          "logIndex": "0x1d",
          "removed": false
        },
        {
          "address": "0x67f3a8170579798d2363252c10c68f7654ba151b",
          "topics": [
            "0xaa987516d372edda28f87f991ac5226457bce89550962c471d032943482c60a8",
            "0x00000000000000000000000096d9894371d8cf0c566f557bc8830f881e4d6c7a",
            "0x00000000000000000000000096d9894371d8cf0c566f557bc8830f881e4d6c7a",
            "0x0000000000000000000000000000000000000000000000000000000000000000"
          ],
          "data": "0x00000000000000000000000000000000000000000000000007177bec981f4cc5000000000000000000000000000000000000000000000000003c74a38040bc2e00000000000000000000000000000000000000000000000006db074917de9097000000000000000000000000000000000000000000091b8f203a9d6283c388f40000000000000000000000000000000000000000029eda26067b03f9a3c388f500000000000000000000000000000000000000000000000000000000000001000000000000000000000000000000000000000000033b2e3c9fd0803ce800000000000000000000000000000000000000000000000000000000000000000000010000000000000000000000000000000000000000000000000000000000000014506f73742047726164756174696f6e2053656c6c000000000000000000000000",
          "blockHash": "0x30ff9b79f69afccc84f0a756402ba191d28eb1feca7cd47b2d88461e52103265",
          "blockNumber": "0x1165269",
          "blockTimestamp": "0x674005b9",
          "transactionHash": "0x1d33d4868c3fac945bdb28b8419e50542dbbbcc2c55a1a020ea9be3f8a61b89f",
          "transactionIndex": "0x2",
          "logIndex": "0x1e",
          "removed": false
        }
      ],
      "logsBloom": "0x00100000000010000000000000000000004100000000004000010000000000000000008000000000000008000100000000000000000020000000001000200000820000000000000800000008020000000000100000400000000000000010000000000000020000000000000000200800000000000000060000000010000800000000008000000200000001100048001000000400000010000800000040000000020000440001400040800108080040008000000005001000000000000000000000000002002000008000000200000000000000001000000000000002000022080010001120000000000401000010000000000000000800000000000000000000",
      "type": "0x2",
      "transactionHash": "0x1d33d4868c3fac945bdb28b8419e50542dbbbcc2c55a1a020ea9be3f8a61b89f",
      "transactionIndex": "0x2",
      "blockHash": "0x30ff9b79f69afccc84f0a756402ba191d28eb1feca7cd47b2d88461e52103265",
      "blockNumber": "0x1165269",
      "gasUsed": "0x3a0d6",
      "effectiveGasPrice": "0x1876c",
      "blobGasPrice": "0x1",
      "from": "0x96d9894371d8cf0c566f557bc8830f881e4d6c7a",
      "to": "0x67f3a8170579798d2363252c10c68f7654ba151b",
      "contractAddress": null
    }
  ],
  "libraries": [],
  "pending": [],
  "returns": {},
  "timestamp": 1732249020,
  "chain": 84532,
  "commit": "0c97209d"
}