{
  "transactions": [
    {
      "hash": "0x90a9c4f7f8d99d73738eed0367b411b3938a54c036dd14a91a004b153fd9e1c5",
      "transactionType": "CALL",
      "contractName": null,
      "contractAddress": "0x67f3a8170579798d2363252c10c68f7654ba151b",
      "function": "buy(address,address,address,string,uint8,uint256,uint160)",
      "arguments": [
        "0x96d9894371d8cf0C566F557bc8830F881E4D6c7a",
        "0x96d9894371d8cf0C566F557bc8830F881E4D6c7a",
        "0x0000000000000000000000000000000000000000",
        "Graduation Buy",
        "0",
        "792000000000000000000000000",
        "0"
      ],
      "transaction": {
        "from": "0x96d9894371d8cf0c566f557bc8830f881e4d6c7a",
        "to": "0x67f3a8170579798d2363252c10c68f7654ba151b",
        "gas": "0x11e1a7",
        "value": "0x72ee679f8969aace",
        "input": "0x472e649000000000000000000000000096d9894371d8cf0c566f557bc8830f881e4d6c7a00000000000000000000000096d9894371d8cf0c566f557bc8830f881e4d6c7a000000000000000000000000000000000000000000000000000000000000000000000000000000000000000000000000000000000000000000000000000000e000000000000000000000000000000000000000000000000000000000000000000000000000000000000000000000000000000000028f208607c9ff2a180000000000000000000000000000000000000000000000000000000000000000000000000000000000000000000000000000000000000000000000000000000000000e47726164756174696f6e20427579000000000000000000000000000000000000",
        "nonce": "0x421",
        "chainId": "0x14a34"
      },
      "additionalContracts": [],
      "isFixedGasLimit": false
    },
    {
      "hash": "0x0b10c7eb9118a7fd3a9211b59225d17a3b9495fc85c23539ad124b79bab5b911",
      "transactionType": "CALL",
      "contractName": null,
      "contractAddress": "0x67f3a8170579798d2363252c10c68f7654ba151b",
      "function": "buy(address,address,address,string,uint8,uint256,uint160)",
      "arguments": [
        "0x96d9894371d8cf0C566F557bc8830F881E4D6c7a",
        "0x96d9894371d8cf0C566F557bc8830F881E4D6c7a",
        "0x0000000000000000000000000000000000000000",
        "Post Graduation Buy",
        "1",
        "10832666447797248449966211",
        "0"
      ],
      "transaction": {
        "from": "0x96d9894371d8cf0c566f557bc8830f881e4d6c7a",
        "to": "0x67f3a8170579798d2363252c10c68f7654ba151b",
        "gas": "0x4f2e5",
        "value": "0xde0b6b3a7640000",
        "input": "0x472e649000000000000000000000000096d9894371d8cf0c566f557bc8830f881e4d6c7a00000000000000000000000096d9894371d8cf0c566f557bc8830f881e4d6c7a000000000000000000000000000000000000000000000000000000000000000000000000000000000000000000000000000000000000000000000000000000e0000000000000000000000000000000000000000000000000000000000000000100000000000000000000000000000000000000000008f5e8065af8f6e169f08300000000000000000000000000000000000000000000000000000000000000000000000000000000000000000000000000000000000000000000000000000013506f73742047726164756174696f6e2042757900000000000000000000000000",
        "nonce": "0x422",
        "chainId": "0x14a34"
      },
      "additionalContracts": [],
      "isFixedGasLimit": false
    },
    {
      "hash": "0xe298ced7f6f17155cf645aa5bb20bce6714698af0c584f96e5c2ad560e43afe6",
      "transactionType": "CALL",
      "contractName": null,
      "contractAddress": "0x67f3a8170579798d2363252c10c68f7654ba151b",
      "function": "approve(address,uint256)",
      "arguments": [
        "0x67f3A8170579798D2363252C10C68f7654ba151B",
        "11010476478313287764904180"
      ],
      "transaction": {
        "from": "0x96d9894371d8cf0c566f557bc8830f881e4d6c7a",
        "to": "0x67f3a8170579798d2363252c10c68f7654ba151b",
        "gas": "0x11686",
        "value": "0x0",
        "input": "0x095ea7b300000000000000000000000067f3a8170579798d2363252c10c68f7654ba151b000000000000000000000000000000000000000000091b8f203a9d6283c388f4",
        "nonce": "0x423",
        "chainId": "0x14a34"
      },
      "additionalContracts": [],
      "isFixedGasLimit": false
    },
    {
      "hash": "0x14eb914978df2014924d758db5f092ff6e7738f5e3095f0623eff2ba90625243",
      "transactionType": "CALL",
      "contractName": null,
      "contractAddress": "0x67f3a8170579798d2363252c10c68f7654ba151b",
      "function": "sell(uint256,address,address,string,uint8,uint256,uint160)",
      "arguments": [
        "11010476478313287764904180",
        "0x96d9894371d8cf0C566F557bc8830F881E4D6c7a",
        "0x0000000000000000000000000000000000000000",
        "Post Graduation Sell",
        "1",
        "455072468902090092",
        "0"
      ],
      "transaction": {
        "from": "0x96d9894371d8cf0c566f557bc8830f881e4d6c7a",
        "to": "0x67f3a8170579798d2363252c10c68f7654ba151b",
        "gas": "0x502f3",
        "value": "0x0",
        "input": "0x9352c825000000000000000000000000000000000000000000091b8f203a9d6283c388f400000000000000000000000096d9894371d8cf0c566f557bc8830f881e4d6c7a000000000000000000000000000000000000000000000000000000000000000000000000000000000000000000000000000000000000000000000000000000e000000000000000000000000000000000000000000000000000000000000000010000000000000000000000000000000000000000000000000650bdffd7f8156c00000000000000000000000000000000000000000000000000000000000000000000000000000000000000000000000000000000000000000000000000000014506f73742047726164756174696f6e2053656c6c000000000000000000000000",
        "nonce": "0x424",
        "chainId": "0x14a34"
      },
      "additionalContracts": [],
      "isFixedGasLimit": false
    }
  ],
  "receipts": [
    {
      "status": "0x1",
      "cumulativeGasUsed": "0x1e3ff0",
      "logs": [
        {
          "address": "0x67f3a8170579798d2363252c10c68f7654ba151b",
          "topics": [
            "0xddf252ad1be2c89b69c2b068fc378daa952ba7f163c4a11628f55a4df523b3ef",
            "0x0000000000000000000000000000000000000000000000000000000000000000",
            "0x00000000000000000000000096d9894371d8cf0c566f557bc8830f881e4d6c7a"
          ],
          "data": "0x00000000000000000000000000000000000000000295be96e640669720000000",
          "blockHash": "0xc9b0e5bc79f572dad821eb368bbbe083709ba80938a75730e2fdad254d573887",
          "blockNumber": "0x116538e",
          "transactionHash": "0x90a9c4f7f8d99d73738eed0367b411b3938a54c036dd14a91a004b153fd9e1c5",
          "transactionIndex": "0x7",
          "logIndex": "0xf",
          "removed": false
        },
        {
          "address": "0x67f3a8170579798d2363252c10c68f7654ba151b",
          "topics": [
            "0x03748fdf3f2653a71724526b9a09758f077bfebef82c6be9345acf194a229541",
            "0x0000000000000000000000000000000000000000000000000000000000000000",
            "0x00000000000000000000000096d9894371d8cf0c566f557bc8830f881e4d6c7a"
          ],
          "data": "0x00000000000000000000000000000000000000000295be96e640669720000000000000000000000000000000000000000000000000000000000000000000000000000000000000000000000000000000000000000295be96e64066972000000000000000000000000000000000000000000000000295be96e640669720000000",
          "blockHash": "0xc9b0e5bc79f572dad821eb368bbbe083709ba80938a75730e2fdad254d573887",
          "blockNumber": "0x116538e",
          "transactionHash": "0x90a9c4f7f8d99d73738eed0367b411b3938a54c036dd14a91a004b153fd9e1c5",
          "transactionIndex": "0x7",
          "logIndex": "0x10",
          "removed": false
        },
        {
          "address": "0x7777777f279eba3d3ad8f4e708545291a6fdba8b",
          "topics": [
            "0x5b769452a2090142e059af5137c5b92a3e966cfb03b794cd01ac195d196c0001",
            "0x00000000000000000000000067f3a8170579798d2363252c10c68f7654ba151b",
            "0x00000000000000000000000096d9894371d8cf0c566f557bc8830f881e4d6c7a",
            "0x2195aeb300000000000000000000000000000000000000000000000000000000"
          ],
          "data": "0x00000000000000000000000000000000000000000000000001cdef983af847e000000000000000000000000000000000000000000000000000000000000000400000000000000000000000000000000000000000000000000000000000000000",
          "blockHash": "0xc9b0e5bc79f572dad821eb368bbbe083709ba80938a75730e2fdad254d573887",
          "blockNumber": "0x116538e",
          "transactionHash": "0x90a9c4f7f8d99d73738eed0367b411b3938a54c036dd14a91a004b153fd9e1c5",
          "transactionIndex": "0x7",
          "logIndex": "0x11",
          "removed": false
        },
        {
          "address": "0x7777777f279eba3d3ad8f4e708545291a6fdba8b",
          "topics": [
            "0x5b769452a2090142e059af5137c5b92a3e966cfb03b794cd01ac195d196c0001",
            "0x00000000000000000000000067f3a8170579798d2363252c10c68f7654ba151b",
            "0x00000000000000000000000097a027c65e52d8617e69770a782d638585f521eb",
            "0x4f45123800000000000000000000000000000000000000000000000000000000"
          ],
          "data": "0x000000000000000000000000000000000000000000000000005c631e7231a7f900000000000000000000000000000000000000000000000000000000000000400000000000000000000000000000000000000000000000000000000000000000",
          "blockHash": "0xc9b0e5bc79f572dad821eb368bbbe083709ba80938a75730e2fdad254d573887",
          "blockNumber": "0x116538e",
          "transactionHash": "0x90a9c4f7f8d99d73738eed0367b411b3938a54c036dd14a91a004b153fd9e1c5",
          "transactionIndex": "0x7",
          "logIndex": "0x12",
          "removed": false
        },
        {
          "address": "0x7777777f279eba3d3ad8f4e708545291a6fdba8b",
          "topics": [
            "0x5b769452a2090142e059af5137c5b92a3e966cfb03b794cd01ac195d196c0001",
            "0x00000000000000000000000067f3a8170579798d2363252c10c68f7654ba151b",
            "0x00000000000000000000000097a027c65e52d8617e69770a782d638585f521eb",
            "0x2c831a5500000000000000000000000000000000000000000000000000000000"
          ],
          "data": "0x000000000000000000000000000000000000000000000000005c631e7231a7f900000000000000000000000000000000000000000000000000000000000000400000000000000000000000000000000000000000000000000000000000000000",
          "blockHash": "0xc9b0e5bc79f572dad821eb368bbbe083709ba80938a75730e2fdad254d573887",
          "blockNumber": "0x116538e",
          "transactionHash": "0x90a9c4f7f8d99d73738eed0367b411b3938a54c036dd14a91a004b153fd9e1c5",
          "transactionIndex": "0x7",
          "logIndex": "0x13",
          "removed": false
        },
        {
          "address": "0x7777777f279eba3d3ad8f4e708545291a6fdba8b",
          "topics": [
            "0x5b769452a2090142e059af5137c5b92a3e966cfb03b794cd01ac195d196c0001",
            "0x00000000000000000000000067f3a8170579798d2363252c10c68f7654ba151b",
            "0x0000000000000000000000009988c79fa6daa5c06b31236628ee80361e7ebecd",
            "0x466e3cd400000000000000000000000000000000000000000000000000000000"
          ],
          "data": "0x000000000000000000000000000000000000000000000000005c631e7231a7f900000000000000000000000000000000000000000000000000000000000000400000000000000000000000000000000000000000000000000000000000000000",
          "blockHash": "0xc9b0e5bc79f572dad821eb368bbbe083709ba80938a75730e2fdad254d573887",
          "blockNumber": "0x116538e",
          "transactionHash": "0x90a9c4f7f8d99d73738eed0367b411b3938a54c036dd14a91a004b153fd9e1c5",
          "transactionIndex": "0x7",
          "logIndex": "0x14",
          "removed": false
        },
        {
          "address": "0x7777777f279eba3d3ad8f4e708545291a6fdba8b",
          "topics": [
            "0x5b769452a2090142e059af5137c5b92a3e966cfb03b794cd01ac195d196c0001",
            "0x00000000000000000000000067f3a8170579798d2363252c10c68f7654ba151b",
            "0x00000000000000000000000097a027c65e52d8617e69770a782d638585f521eb",
            "0x404ca69f00000000000000000000000000000000000000000000000000000000"
          ],
          "data": "0x00000000000000000000000000000000000000000000000000b8c63ce4634ff300000000000000000000000000000000000000000000000000000000000000400000000000000000000000000000000000000000000000000000000000000000",
          "blockHash": "0xc9b0e5bc79f572dad821eb368bbbe083709ba80938a75730e2fdad254d573887",
          "blockNumber": "0x116538e",
          "transactionHash": "0x90a9c4f7f8d99d73738eed0367b411b3938a54c036dd14a91a004b153fd9e1c5",
          "transactionIndex": "0x7",
          "logIndex": "0x15",
          "removed": false
        },
        {
          "address": "0x67f3a8170579798d2363252c10c68f7654ba151b",
          "topics": [
            "0x101f282711d5d43488168e09b492f51ffff91932431fa1785050ed90fc1b5bc0",
            "0x00000000000000000000000096d9894371d8cf0c566f557bc8830f881e4d6c7a",
            "0x00000000000000000000000097a027c65e52d8617e69770a782d638585f521eb",
            "0x00000000000000000000000097a027c65e52d8617e69770a782d638585f521eb"
          ],
          "data": "0x0000000000000000000000009988c79fa6daa5c06b31236628ee80361e7ebecd00000000000000000000000097a027c65e52d8617e69770a782d638585f521eb00000000000000000000000000000000000000000000000001cdef983af847e0000000000000000000000000000000000000000000000000005c631e7231a7f9000000000000000000000000000000000000000000000000005c631e7231a7f9000000000000000000000000000000000000000000000000005c631e7231a7f900000000000000000000000000000000000000000000000000b8c63ce4634ff3",
          "blockHash": "0xc9b0e5bc79f572dad821eb368bbbe083709ba80938a75730e2fdad254d573887",
          "blockNumber": "0x116538e",
          "transactionHash": "0x90a9c4f7f8d99d73738eed0367b411b3938a54c036dd14a91a004b153fd9e1c5",
          "transactionIndex": "0x7",
          "logIndex": "0x16",
          "removed": false
        },
        {
          "address": "0x999b45bb215209e567faf486515af43b8353e393",
          "topics": [
            "0xddf252ad1be2c89b69c2b068fc378daa952ba7f163c4a11628f55a4df523b3ef",
            "0x0000000000000000000000000000000000000000000000000000000000000000",
            "0x00000000000000000000000067f3a8170579798d2363252c10c68f7654ba151b"
          ],
          "data": "0x0000000000000000000000000000000000000000000000006c5fe61dfaa2291a",
          "blockHash": "0xc9b0e5bc79f572dad821eb368bbbe083709ba80938a75730e2fdad254d573887",
          "blockNumber": "0x116538e",
          "transactionHash": "0x90a9c4f7f8d99d73738eed0367b411b3938a54c036dd14a91a004b153fd9e1c5",
          "transactionIndex": "0x7",
          "logIndex": "0x17",
          "removed": false
        },
        {
          "address": "0x999b45bb215209e567faf486515af43b8353e393",
          "topics": [
            "0xe1fffcc4923d04b559f4d29a8bfc6cda04eb5b0d3c460751c2402c5c5cc9109c",
            "0x00000000000000000000000067f3a8170579798d2363252c10c68f7654ba151b"
          ],
          "data": "0x0000000000000000000000000000000000000000000000006c5fe61dfaa2291a",
          "blockHash": "0xc9b0e5bc79f572dad821eb368bbbe083709ba80938a75730e2fdad254d573887",
          "blockNumber": "0x116538e",
          "transactionHash": "0x90a9c4f7f8d99d73738eed0367b411b3938a54c036dd14a91a004b153fd9e1c5",
          "transactionIndex": "0x7",
          "logIndex": "0x18",
          "removed": false
        },
        {
          "address": "0x67f3a8170579798d2363252c10c68f7654ba151b",
          "topics": [
            "0xddf252ad1be2c89b69c2b068fc378daa952ba7f163c4a11628f55a4df523b3ef",
            "0x0000000000000000000000000000000000000000000000000000000000000000",
            "0x00000000000000000000000067f3a8170579798d2363252c10c68f7654ba151b"
          ],
          "data": "0x000000000000000000000000000000000000000000a56fa5b99019a5c8000000",
          "blockHash": "0xc9b0e5bc79f572dad821eb368bbbe083709ba80938a75730e2fdad254d573887",
          "blockNumber": "0x116538e",
          "transactionHash": "0x90a9c4f7f8d99d73738eed0367b411b3938a54c036dd14a91a004b153fd9e1c5",
          "transactionIndex": "0x7",
          "logIndex": "0x19",
          "removed": false
        },
        {
          "address": "0x67f3a8170579798d2363252c10c68f7654ba151b",
          "topics": [
            "0x03748fdf3f2653a71724526b9a09758f077bfebef82c6be9345acf194a229541",
            "0x0000000000000000000000000000000000000000000000000000000000000000",
            "0x00000000000000000000000067f3a8170579798d2363252c10c68f7654ba151b"
          ],
          "data": "0x000000000000000000000000000000000000000000a56fa5b99019a5c80000000000000000000000000000000000000000000000000000000000000000000000000000000000000000000000000000000000000000a56fa5b99019a5c80000000000000000000000000000000000000000000000033b2e3c9fd0803ce8000000",
          "blockHash": "0xc9b0e5bc79f572dad821eb368bbbe083709ba80938a75730e2fdad254d573887",
          "blockNumber": "0x116538e",
          "transactionHash": "0x90a9c4f7f8d99d73738eed0367b411b3938a54c036dd14a91a004b153fd9e1c5",
          "transactionIndex": "0x7",
          "logIndex": "0x1a",
          "removed": false
        },
        {
          "address": "0x999b45bb215209e567faf486515af43b8353e393",
          "topics": [
            "0x8c5be1e5ebec7d5bd14f71427d1e84f3dd0314c0f7b2291e5b200ac8c7c3b925",
            "0x00000000000000000000000067f3a8170579798d2363252c10c68f7654ba151b",
            "0x00000000000000000000000027f971cb582bf9e50f397e4d29a5c7a34f11faa2"
          ],
          "data": "0x0000000000000000000000000000000000000000000000006c5fe61dfaa2291a",
          "blockHash": "0xc9b0e5bc79f572dad821eb368bbbe083709ba80938a75730e2fdad254d573887",
          "blockNumber": "0x116538e",
          "transactionHash": "0x90a9c4f7f8d99d73738eed0367b411b3938a54c036dd14a91a004b153fd9e1c5",
          "transactionIndex": "0x7",
          "logIndex": "0x1b",
          "removed": false
        },
        {
          "address": "0x67f3a8170579798d2363252c10c68f7654ba151b",
          "topics": [
            "0x8c5be1e5ebec7d5bd14f71427d1e84f3dd0314c0f7b2291e5b200ac8c7c3b925",
            "0x00000000000000000000000067f3a8170579798d2363252c10c68f7654ba151b",
            "0x00000000000000000000000027f971cb582bf9e50f397e4d29a5c7a34f11faa2"
          ],
          "data": "0x000000000000000000000000000000000000000000a56fa5b99019a5c8000000",
          "blockHash": "0xc9b0e5bc79f572dad821eb368bbbe083709ba80938a75730e2fdad254d573887",
          "blockNumber": "0x116538e",
          "transactionHash": "0x90a9c4f7f8d99d73738eed0367b411b3938a54c036dd14a91a004b153fd9e1c5",
          "transactionIndex": "0x7",
          "logIndex": "0x1c",
          "removed": false
        },
        {
          "address": "0x67f3a8170579798d2363252c10c68f7654ba151b",
          "topics": [
            "0xddf252ad1be2c89b69c2b068fc378daa952ba7f163c4a11628f55a4df523b3ef",
            "0x00000000000000000000000067f3a8170579798d2363252c10c68f7654ba151b",
            "0x0000000000000000000000005c71bc72d13ea07fa35c582b30356ccf1f126469"
          ],
          "data": "0x000000000000000000000000000000000000000000a56fa5b99019a5c7fffb1e",
          "blockHash": "0xc9b0e5bc79f572dad821eb368bbbe083709ba80938a75730e2fdad254d573887",
          "blockNumber": "0x116538e",
          "transactionHash": "0x90a9c4f7f8d99d73738eed0367b411b3938a54c036dd14a91a004b153fd9e1c5",
          "transactionIndex": "0x7",
          "logIndex": "0x1d",
          "removed": false
        },
        {
          "address": "0x67f3a8170579798d2363252c10c68f7654ba151b",
          "topics": [
            "0x03748fdf3f2653a71724526b9a09758f077bfebef82c6be9345acf194a229541",
            "0x00000000000000000000000067f3a8170579798d2363252c10c68f7654ba151b",
            "0x0000000000000000000000005c71bc72d13ea07fa35c582b30356ccf1f126469"
          ],
          "data": "0x000000000000000000000000000000000000000000a56fa5b99019a5c7fffb1e00000000000000000000000000000000000000000000000000000000000004e2000000000000000000000000000000000000000000a56fa5b99019a5c7fffb1e0000000000000000000000000000000000000000033b2e3c9fd0803ce8000000",
          "blockHash": "0xc9b0e5bc79f572dad821eb368bbbe083709ba80938a75730e2fdad254d573887",
          "blockNumber": "0x116538e",
          "transactionHash": "0x90a9c4f7f8d99d73738eed0367b411b3938a54c036dd14a91a004b153fd9e1c5",
          "transactionIndex": "0x7",
          "logIndex": "0x1e",
          "removed": false
        },
        {
          "address": "0x999b45bb215209e567faf486515af43b8353e393",
          "topics": [
            "0xddf252ad1be2c89b69c2b068fc378daa952ba7f163c4a11628f55a4df523b3ef",
            "0x00000000000000000000000067f3a8170579798d2363252c10c68f7654ba151b",
            "0x0000000000000000000000005c71bc72d13ea07fa35c582b30356ccf1f126469"
          ],
          "data": "0x0000000000000000000000000000000000000000000000006c5fe61dfaa220c0",
          "blockHash": "0xc9b0e5bc79f572dad821eb368bbbe083709ba80938a75730e2fdad254d573887",
          "blockNumber": "0x116538e",
          "transactionHash": "0x90a9c4f7f8d99d73738eed0367b411b3938a54c036dd14a91a004b153fd9e1c5",
          "transactionIndex": "0x7",
          "logIndex": "0x1f",
          "removed": false
        },
        {
          "address": "0x5c71bc72d13ea07fa35c582b30356ccf1f126469",
          "topics": [
            "0x7a53080ba414158be7ec69b987b5fb7d07dee101fe85488f0853ae16239d0bde",
            "0x00000000000000000000000027f971cb582bf9e50f397e4d29a5c7a34f11faa2",
            "0xfffffffffffffffffffffffffffffffffffffffffffffffffffffffffff27660",
            "0x00000000000000000000000000000000000000000000000000000000000d89a0"
          ],
          "data": "0x00000000000000000000000027f971cb582bf9e50f397e4d29a5c7a34f11faa200000000000000000000000000000000000000000000085e64539bf35bfd9dd1000000000000000000000000000000000000000000a56fa5b99019a5c7fffb1e0000000000000000000000000000000000000000000000006c5fe61dfaa220c0",
          "blockHash": "0xc9b0e5bc79f572dad821eb368bbbe083709ba80938a75730e2fdad254d573887",
          "blockNumber": "0x116538e",
          "transactionHash": "0x90a9c4f7f8d99d73738eed0367b411b3938a54c036dd14a91a004b153fd9e1c5",
          "transactionIndex": "0x7",
          "logIndex": "0x20",
          "removed": false
        },
        {
          "address": "0x27f971cb582bf9e50f397e4d29a5c7a34f11faa2",
          "topics": [
            "0xddf252ad1be2c89b69c2b068fc378daa952ba7f163c4a11628f55a4df523b3ef",
            "0x0000000000000000000000000000000000000000000000000000000000000000",
            "0x00000000000000000000000067f3a8170579798d2363252c10c68f7654ba151b",
            "0x0000000000000000000000000000000000000000000000000000000000000a33"
          ],
          "data": "0x",
          "blockHash": "0xc9b0e5bc79f572dad821eb368bbbe083709ba80938a75730e2fdad254d573887",
          "blockNumber": "0x116538e",
          "transactionHash": "0x90a9c4f7f8d99d73738eed0367b411b3938a54c036dd14a91a004b153fd9e1c5",
          "transactionIndex": "0x7",
          "logIndex": "0x21",
          "removed": false
        },
        {
          "address": "0x27f971cb582bf9e50f397e4d29a5c7a34f11faa2",
          "topics": [
            "0x3067048beee31b25b2f1681f88dac838c8bba36af25bfb2b7cf7473a5847e35f",
            "0x0000000000000000000000000000000000000000000000000000000000000a33"
          ],
          "data": "0x00000000000000000000000000000000000000000000085e64539bf35bfd9dd1000000000000000000000000000000000000000000a56fa5b99019a5c7fffb1e0000000000000000000000000000000000000000000000006c5fe61dfaa220c0",
          "blockHash": "0xc9b0e5bc79f572dad821eb368bbbe083709ba80938a75730e2fdad254d573887",
          "blockNumber": "0x116538e",
          "transactionHash": "0x90a9c4f7f8d99d73738eed0367b411b3938a54c036dd14a91a004b153fd9e1c5",
          "transactionIndex": "0x7",
          "logIndex": "0x22",
          "removed": false
        },
        {
          "address": "0x67f3a8170579798d2363252c10c68f7654ba151b",
          "topics": [
            "0x6b2d56ef614fc384812413f827d3e486737a61c4a793c0819634b02a6534fe55",
            "0x00000000000000000000000067f3a8170579798d2363252c10c68f7654ba151b",
            "0x0000000000000000000000005c71bc72d13ea07fa35c582b30356ccf1f126469"
          ],
          "data": "0x0000000000000000000000000000000000000000000000006c5fe61dfaa2291a000000000000000000000000000000000000000000a56fa5b99019a5c80000000000000000000000000000000000000000000000000000000000000000000a330000000000000000000000000000000000000000000000000000000000000001",
          "blockHash": "0xc9b0e5bc79f572dad821eb368bbbe083709ba80938a75730e2fdad254d573887",
          "blockNumber": "0x116538e",
          "transactionHash": "0x90a9c4f7f8d99d73738eed0367b411b3938a54c036dd14a91a004b153fd9e1c5",
          "transactionIndex": "0x7",
          "logIndex": "0x23",
          "removed": false
        },
        {
          "address": "0x67f3a8170579798d2363252c10c68f7654ba151b",
          "topics": [
            "0xa1e3720a50948c972c9d045a830d2703f63011fc5d18f65219da114e0809d863",
            "0x00000000000000000000000096d9894371d8cf0c566f557bc8830f881e4d6c7a",
            "0x00000000000000000000000096d9894371d8cf0c566f557bc8830f881e4d6c7a",
            "0x0000000000000000000000000000000000000000000000000000000000000000"
          ],
          "data": "0x00000000000000000000000000000000000000000000000072ee679f8969aace000000000000000000000000000000000000000000000000039bdf3075f08fc10000000000000000000000000000000000000000000000006ffbc54e7092b8d800000000000000000000000000000000000000000295be96e64066972000000000000000000000000000000000000000000000000295be96e64066972000000000000000000000000000000000000000000000000000000000000000000001000000000000000000000000000000000000000000033b2e3c9fd0803ce80000000000000000000000000000000000000000000000000000000000000000000001000000000000000000000000000000000000000000000000000000000000000e47726164756174696f6e20427579000000000000000000000000000000000000",
          "blockHash": "0xc9b0e5bc79f572dad821eb368bbbe083709ba80938a75730e2fdad254d573887",
          "blockNumber": "0x116538e",
          "transactionHash": "0x90a9c4f7f8d99d73738eed0367b411b3938a54c036dd14a91a004b153fd9e1c5",
          "transactionIndex": "0x7",
          "logIndex": "0x24",
          "removed": false
        }
      ],
      "logsBloom": "0x001000000000100000001000000040000041000000004040000100000000000000004080000000000000080001000000000000000008000004000110002000008200000000000000000080080a0000000000100020000000000000008010000002000000820000000000000000200800000000000800260000000010000000010040008008000200000101100040001000002009000010000800000040000000020000040001400040800108080040000000000005001020000000000000000000000002002000008400080200000000000000000000010000000400000022080010000120000000000401000010000000000000000800400000000000000800",
      "type": "0x2",
      "transactionHash": "0x90a9c4f7f8d99d73738eed0367b411b3938a54c036dd14a91a004b153fd9e1c5",
      "transactionIndex": "0x7",
      "blockHash": "0xc9b0e5bc79f572dad821eb368bbbe083709ba80938a75730e2fdad254d573887",
      "blockNumber": "0x116538e",
      "gasUsed": "0xcf224",
      "effectiveGasPrice": "0x316",
      "from": "0x96d9894371d8cf0c566f557bc8830f881e4d6c7a",
      "to": "0x67f3a8170579798d2363252c10c68f7654ba151b",
      "contractAddress": null,
      "l1BaseFeeScalar": "0x44d",
      "l1BlobBaseFee": "0x1",
      "l1BlobBaseFeeScalar": "0xa118b",
      "l1Fee": "0xdbeabc1",
      "l1GasPrice": "0x60da1ec",
      "l1GasUsed": "0x80e"
    }
  ],
  "libraries": [],
  "pending": [],
  "returns": {},
  "timestamp": 1732249203,
  "chain": 84532,
  "commit": "0c97209d"
}